:020000040800F2
:1000000020070020A1010008ED2F0008252B000883
:10001000E92F00082D130008ED3000080000000053
:100020000000000000000000000000005D3000083B
:100030003113000800000000F12F00085F300008B5
:10004000BB010008BB010008BB010008BB010008A0
:10005000BB010008BB010008BB010008BB01000890
:10006000BB010008BB010008BB010008BB01000880
:10007000BB010008BB010008BB010008BB01000870
:10008000BB010008BB010008BB010008BB01000860
:10009000BB010008BB010008BB010008BB01000850
:1000A000BB010008BB010008BB010008BB01000840
:1000B000BB010008BB010008BB010008BB01000830
:1000C000BB010008BB010008BB010008BB01000820
:1000D000BB010008BB010008BB010008BB01000810
:1000E000BB010008BB010008BB01000800F002F8DA
:1000F00000F047F80AA090E8000C82448344AAF17B
:100100000107DA4501D100F03CF8AFF2090EBAE878
:100110000F0013F0010F18BFFB1A43F0010318473B
:100120004C3C00006C3C0000103A24BF78C878C1F9
:10013000FAD8520724BF30C830C144BF04680C60ED
:10014000704700000023002400250026103A28BF35
:1001500078C1FBD8520728BF30C148BF0B60704739
:10016000662903F09885002070471FB500F02AFB30
:1001700004000020002103F009FAE0601FBD10B563
:1001800010BD00F01FFC1146FFF7EFFF03F0B2F8BF
:1001900000F03DFC03B4FFF7F2FF03BC00F080FC6D
:1001A0000948804709480047FEE7FEE7FEE7FEE70B
:1001B000FEE7FEE7FEE7FEE7FEE7FEE70448054947
:1001C000054A064B70470000EB300008ED000008C0
:1001D0002001002020070020200300202003002011
:1001E0000FB41CB5074B06AA7B44694600900598DE
:1001F00000F0CFFA0020694600F0DEFA1CBC5DF882
:1002000014FB0000CD0500002DE9F0474FF0000A77
:1002100089460446C0F820A02046E16888470028A7
:1002200076D0252806D0D4E901219047206A401CC9
:100230002062F1E7E168204600258847C4F81CA049
:1002400006460027C4F818A02A2E09D0304602F02E
:100250007FFF38B304EB8708303EC8F8186019E018
:1002600059F8041B204604EB87029161E168884736
:10027000012F064618D1E069002820DA25F0200574
:100280001DE0D8F8180000EB800006EB4000303885
:10029000C8F818002046E1688847064602F058FF73
:1002A0000028EED1012F0AD02E2E08D12046E16879
:1002B00088477F1C0646022F45F02005C4DBA06955
:1002C000002803DA404245F00105A061E80701D0AB
:1002D00025F01005B6B1A6F14100192802D8203644
:1002E00045F400654A463146204625604D46FFF7F5
:1002F00037FF58B1012806D0ED1D25F0070000F1A9
:10030000080989E704E005F1040985E730468AE732
:10031000206ABDE8F0874FF0000200B5134694460E
:100320009646203922BFA0E80C50A0E80C50B1F14D
:100330002001BFF4F7AF090728BFA0E80C5048BF61
:100340000CC05DF804EB890028BF40F8042B08BFFF
:10035000704748BF20F8022B11F0804F18BF00F8FB
:10036000012B704770477047704770472DE9FF4F6A
:100370000C461E464FF0FF378BB0D2E90001DDF886
:1003800060800A908A46C1F30A5505B93D460021AE
:1003900008464FF00000BAF1000F00F4400005DA03
:1003A00000EB80004FF4400101EA50004FEA905901
:1003B000B9F1010F00DDB9460A9850EA4A000ED0A3
:1003C00044F61050A5F2FF3545432F14B8F1000F45
:1003D0001ED07542291E1EDDC9F100021CE0B8F1D5
:1003E000010F4FF0000001D0302103E0F24305E09F
:1003F0002154401CB042FBDB304600220021215436
:100400000B99C1F80880C1E900200FB0BDE8F08F5A
:10041000BD1B6D1CDEE74A4600DA694206A800F003
:100420005BFA06AB93E8070003AB83E8070050468E
:100430000A9900F03CFB8DE80700A0F500501F383A
:1004400000900398002D0ADD42F21F014A4608443D
:10045000002303A90390684600F0A5FD09E0A0F57C
:1004600000504A461F38002303A90390684600F055
:10047000AFFD8DE807000004000C03D04FF0FF3003
:10048000410800E01046B8F1000F03D000220092AE
:1004900015461EE0751E05D400F098F930326255FD
:1004A0006D1EF9D5B3460122084302D000227F1CFD
:1004B00004E02078302801D100227F1E002A09970D
:1004C00084D01DE0112D07DA00F080F9303262553A
:1004D0006D1C50EA0102F5D1084302D00098C8B162
:1004E0000EE00021681E05E0235C625C6354225428
:1004F000401E491C8142F7DBAB46A81B401E0990F9
:10050000002004F80B000B98099AC0F80880C0E995
:10051000002B7AE711264FF0000857E72DE9F04F3E
:1005200088460446D21D22F0070191B0D1E90001AE
:10053000CDE90A0102F0DCFD02460B98C00F01D0A4
:100540002D2007E02068810701D52B2002E0202123
:1005500001EAC000032A099001D0072A05DB0346FF
:100560004146204600F078F90BE12078800601D55D
:10057000E06900E00620B8F1650F814606D0B8F1C9
:10058000660F18D0B8F1670F70D131E00020B9F1D3
:10059000110F009001DB112301E009F101030AAA08
:1005A00001A90CA8FFF7E2FEDDE90C70002609F1B5
:1005B0000105834647E001204B4600904FF000477D
:1005C0000AAA01A90CA8FFF7D1FEDDE90DB00C992C
:1005D0005D46002610B909F101000D18B9EB0500C0
:1005E00003D4C0F1FF3609F10105A5EB09002BE0AA
:1005F000B9F1010F01DA4FF001090020B9F1110F33
:100600000090484601DD112300E003460AAA01A933
:100610000CA8FFF7ABFEDDE90C704D4600268346C3
:10062000207800070AD4AB4500DA5D4601A8012D09
:1006300004DD411911F8011C302907D04F4502DAB9
:1006400017F1040F04DA012082460FE06D1EEEE779
:10065000002F02DCED1B3E4403E0781CA84200DDC5
:100660007D1CB81B00F1010A4FF0004720780007FD
:1006700003D4AA4501DB4FF0FF3A0021B7F1004F48
:100680000DF143088DF8431024D002202B23002FB6
:1006900001DA7F422D230A21021EA0F1010000DCB5
:1006A0005FB197FBF1FC97FBF1F201FB1C7C174655
:1006B0000CF1300C08F801CDEEE7A8F10100037051
:1006C0002188090501D5452100E06521A0F1010837
:1006D00000F8011C09980FA9A1EB0807FF1D00B144
:1006E0000120411901EBEA70A1693844081A401E43
:1006F000A0612078C00602D42046AFF3008009989C
:1007000028B1D4E901219047206A401C206220785A
:10071000C00622D52046AFF300801EE0002E04DB89
:10072000B34502DD01A8805D00E03020D4E901215D
:100730009047206A401C2062761CAAF101005FEA03
:10074000000A0AD100F03EF8C0680168405CD4E9B4
:1007500001219047206A401C2062281EA5F1010556
:10076000DCDC07E0D4E9012118F8010B9047206A8E
:10077000401C2062381EA7F10107F3DC2046AFF3CE
:100780000080032011B041E601694A1C026108782B
:10079000704700B58FB0CDE90131002105910549C1
:1007A0007944CDE9031011466846FFF72DFD0FB0DF
:1007B00000BD0000E5FFFFFF0A6802F8010B0A60B8
:1007C0007047000000487047E000002030B5B0F1ED
:1007D0000A024FEA900E71F100034EEA817EB0EBFF
:1007E0000E0061EB91014FEA101E4EEA017E10EB04
:1007F0000E0041EB11114FEA102E4EEA016E10EB84
:100800000E0041EB11214FEA104E4EEA014E10EB63
:100810000E0041EB1141401841F100014FEAD000B8
:1008200040EA41704FEAD10110EB80054FEA8104A4
:1008300044EA907444EB01046D1944EB0404521B28
:10084000A3414FF0000348BF0A3200D530BD401C21
:1008500041F1000130BD00002DE9F0411F46044682
:1008600003260168072A01F4006004DB08B116A51D
:1008700005E016A503E008B115A500E015A521F0D7
:1008800010002060A069C01EA0610FB1401EA061D1
:100890002046AFF300804FB1D4E90121384690479C
:1008A000206A401C2062C01C206206E0206AFAE731
:1008B000D4E9012115F8010B9047761EF8D22046A5
:1008C000AFF30080BDE8F0814E414E006E616E00D6
:1008D000494E4600696E66002DE9F047814616468E
:1008E0008AB0354878440DC88DE80D003248784408
:1008F000801C03AC0DC884E80D0041F69B30084411
:10090000372190FBF1F290FBF1F5A5F1800501FB99
:1009100012041B3C02D56442012000E00020DFF8F5
:1009200098A080460027FA44AAF1BE0A0EE0E0072C
:100930000AD03246684607EB470101230AEB8101E2
:1009400000F046FB8DE8070064107F1C002CEED100
:10095000194F7F44AE3F19E0E80715D007EB0410AC
:100960000DF1180A90E80E008AE80E00C068F04207
:1009700001D1981908903246012306A903A800F076
:1009800027FB03AB83E807006D10641C002DE3D147
:100990004FF0010332466946B8F1000F03A802D0B8
:1009A00000F001FB01E000F013FBC9E90001C9F808
:1009B00008200AB0BDE8F0876C340000004870479A
:1009C000C00000207546FFF7F9FFAE4605006946F6
:1009D000534620F00700854618B020B5FFF7EEFB20
:1009E000BDE820404FF000064FF000074FF0000830
:1009F0004FF0000B21F00701AC46ACE8C009ACE8B1
:100A0000C009ACE8C009ACE8C0098D46704710B514
:100A10000446AFF300802046BDE81040FFF7BABBA4
:100A20004FF0013C50F8042B51F8043B9A4221D17D
:100A3000A2EB0C03934313EACC1317D150F8042B09
:100A400051F8043B9A4215D1A2EB0C03934313EAED
:100A5000CC130BD150F8042B51F8043B9A4209D126
:100A6000A2EB0C03934313EACC13DBD04FF000004E
:100A7000704700BFD01A01BAB1FA81F101F0180134
:100A800022FA01F0CB40C1F12001DBB2C0B2C01AA2
:100A90002CFA01F3D11A914311EAC311E6D1704740
:100AA00001491820ABBEFEE72600020070475FEA4E
:100AB000400C08BF91F0000F4FEA8C234FEAC1228F
:100AC00043EA51514FEA1C5018BF00F5F0404FEA7D
:100AD000300018BF41F000415FEA6C5C00F02980F3
:100AE000BCF1FF3F08BF40F080407047130C06BFC9
:100AF00012044FF0100C4FF0000C130E04BF120242
:100B00000CF1080C130F04BF12010CF1040C930F2D
:100B100004BF92000CF1020CD30F04BF52000CF181
:100B2000010C11464FF00002A0F11F00A0EB0C00D9
:100B3000704711F0004F08BF704731F000413FF49B
:100B4000D5AF0B0C06BF09044FF0100C4FF0000C92
:100B50000B0E04BF09020CF1080C0B0F04BF0901B6
:100B60000CF1040C8B0F04BF89000CF1020CCB0FAD
:100B700004BF49000CF1010CCCF12003A0EB0C00E8
:100B800022FA03F302FA0CF241EA030100F1010038
:100B9000704720F07F4C80EA030023F07F47ACEBE6
:100BA000070303F57C5300F0004003F1FF032DE938
:100BB00080494FEA154B09B44FEA144325EA0B4E1E
:100BC00024EA03480FF2042606EB132749083E786F
:100BD0005FEA320203FB0667C7F5000707FB06F66C
:100BE0004FEA54374FEAD64606F1020607FB066C79
:100BF000CCF1005C4FEA1C472CEA074C07FB06F4DB
:100C00000CFB06F504EB15464FEA961634BF0020A0
:100C10004FF000404FEAD13706FB07FC4FEA1C4C6F
:100C20000CFB0BF7D21B03FB0CF761EB07010CFB72
:100C30000EF7B0EB074072EB17420CFB08F734BF1E
:100C4000A2EB0742B2EB074261EB17414FEA0C44BB
:100C50004FEA910706FB07FC4FEA1C4C0CFB0BF715
:100C6000B0EBC74072EB573203FB0CF734BFA2EB7B
:100C7000C742B2EBC74261EB57310CFB0EF7B0EB4A
:100C8000C70072EB57720CFB08F734BFA2EBC70228
:100C9000B2EBC70261EB5771039F4FEA816141EAF2
:100CA000921104EBCC044FEAD1374FEA826206FB83
:100CB00007FC42EA90124FEA80604FEA1C4C0CFBA2
:100CC0000BF7D21B03FB0CF761EB07010CFB0EF7D4
:100CD000B0EB074072EB17420CFB08F734BFA2EBF6
:100CE0000742B2EB074261EB17414FEA8C554FEADE
:100CF000910704EB9C2406FB07FC4FEA1C4C0CFB01
:100D00000BF7B0EBC74072EB573203FB0CF734BF65
:100D1000A2EBC742B2EBC74261EB57310CFB0EF7B7
:100D2000B0EBC70072EB57720CFB08F734BFA2EBB5
:100D3000C702B2EBC70261EB577115EB4C254FEAC6
:100D4000816141EA92114FEA82624FEAD13742EA69
:100D5000901206FB07FC44F100044FEA80604FEA62
:100D60001C4C0CFB0BF7D21B03FB0CF761EB0701D0
:100D70000CFB0EF7B0EB074072EB17420CFB08F7C9
:100D800034BFA2EB0742B2EB074261EB174115EB10
:100D90001C154FEA813141EA92414FEA823242EA20
:100DA00090424FEA80304FEA0C7644F1000448EA62
:100DB00003434EEA0B484FF0000EB2EB080C71EB08
:100DC000030724BF624639464EEB0E0E4FF0000B70
:100DD0000018524149414BEB0B0BB2EB080C71EB85
:100DE00003077BF1000B24BF624639464EEB0E0E23
:100DF0004FF0000B0018524149414BEB0B0BB2EB8B
:100E0000080C71EB03077BF1000B24BF62463946E7
:100E10004EEB0E0E51EA020718BF46F0010616EB24
:100E20000E7655F1000254F1000103D5BDE88901A9
:100E3000BDE80088BDE88901BDE80048B619524107
:100E400041EB0101A3F10103704780807F7E7D7C2F
:100E50007B7A7978777676757473727171706F6E4C
:100E60006E6D6C6C6B6A6A696868676666656464F7
:100E7000636362616160605F5F5E5E5D5D5C5C5B81
:100E80005B5A5A59595858575756565555555454F0
:100E9000535352525251515050504F4F4F4E4E4D4E
:100EA0004D4D4C4C4C4B4B4B4A4A4A49494948489A
:100EB00048474747474646464545454444444443DA
:100EC00043434342424242414141002B9C4630D47D
:100ED00077002BD01CB54FEA370703B44FF0100052
:100EE0004FF01001BAF1000F06D0BCF1000FDCBFCB
:100EF00040F0080040F008014FF000000FBCBDE8D2
:100F000010400BF1010BBBF1010F08BF5FEA17079F
:100F100022BF12F1010211F101014FF0004143F132
:100F2000000300F0004043EA00007047F9D357087F
:100F3000D0E746EA064613F1400F4FEA16461FDD9A
:100F400013F1200FDFBF16430A46002120335B4216
:100F5000BED0C3F1200746EA064602FA07F74FEA79
:100F6000164646EA0706C3F1200722FA03F201FA01
:100F700007F721FA03F14FF0000342EA0702A7E75F
:100F800046EA020646EA06464FEA164646EA0106E1
:100F9000BCBF46EA0646360C4FF000034FF0000295
:100FA0004FF0000194E72DE9804C9A46934670B4C7
:100FB00091E8380007C831EA400C48BF34EA430CD6
:100FC00003D5FFF7E6FDFFF780FFF0BCBDE8008C1E
:100FD0002DE9804C9A46934670B491E8380007C8D2
:100FE00010F0804F08BF13F0804F03D100F005F8D8
:100FF000FFF76BFFF0BCBDE8008C20F07F4780EA74
:10100000030023F07F4C07EB0C03A3F57C5300F0A7
:101010000040A3F1FE0392F0000F00F0B38095F0C2
:10102000000F00F077802DE901494FEA11404FEAA7
:10103000144621EA004800FB06FC24EA064708FBA8
:1010400006F607FB08F800FB07F718EB06484CEB21
:10105000164C4FEA124B18EB07484FEA15464CEB7B
:10106000174022EA0B4E0BFB06FC25EA06470EFB57
:1010700006F607FB0EFE0BFB07F71EEB064E4CEBCE
:10108000164C4FF000061EEB074E4CEB174B18EBBF
:101090000B0840F1000018EB0E0B58EB000840F174
:1010A00000008F1A4FF000013CBFC943661B14BFFC
:1010B000B5EB040C00213CBFC943F61B4FEA1744B3
:1010C0004EEA8E0E27EA04454FEA1C4704FB0762EE
:1010D0002CEA074C05FB07F70CFB05F604FB0CFCA0
:1010E00016EB074642EB174216EB0C4642EB1C424E
:1010F0001BEB060658EB0202414146EA9E0601D56B
:10110000BDE80189B619524141EB0101A3F1010388
:10111000BDE801894FEA14454FEA114724EA054624
:1011200021EA074C05FB07F406FB07F70CFB06F169
:1011300005FB0CFC11EB074144EB17444FEA124747
:1011400011EB0C4144EB1C4422EA074C05FB07F26F
:1011500006FB07F70CFB06F605FB0CFC16EB074637
:1011600042EB174216EB0C4642EB1C456A1854F151
:10117000000148BF7047B619524141EB0101A3F18C
:101180000103704795F0000F37D04FEA11424FEA44
:10119000144721EA024624EA074C02FB07F106FB4A
:1011A00007F70CFB06F402FB0CFC14EB074441EBC5
:1011B00017414FEA154714EB0C4441EB1C4125EA5B
:1011C000074C02FB07F506FB07F70CFB06F602FBD4
:1011D0000CFC16EB074645EB174516EB0C4645EBAA
:1011E0001C42121951F1000148BF7047B619524113
:1011F00041EB0101A3F1010370474FEA14454FEAA7
:10120000114724EA054621EA074C05FB07F106FBD6
:1012100007F70CFB06F24FF0000605FB0CFC12EB87
:10122000074241EB174112EB0C4251EB1C4148BF06
:101230007047921841EB0101A3F10103704770B5AB
:10124000044600252068806800F0010018B320687B
:10125000806820F001002168886000F03BFD0546B1
:1012600013E000F037FD401B02280ED9206880688B
:1012700000F0010048B1A06A40F01000A062E06AEE
:1012800040F00100E062012070BD2068806800F03D
:1012900001000028E5D10020F6E7000038B504463B
:1012A0000025002000902068806800F0010078BBD5
:1012B0002068806840F00100216888601948006853
:1012C0001949B0FBF1F0009002E00098401E009038
:1012D00000980028F9D100F0FDFC054619E000F067
:1012E000F9FC401B022814D92068806800F0010036
:1012F00078B9A06A40F01000A062E06A40F00100F6
:10130000E06200BF002084F8240000BF012038BD47
:1013100005E02068806800F001000028DFD0002090
:10132000F5E700002400002040420F0000BFFEE768
:10133000704772B600BFFEE738B5024600230020B2
:10134000009000BF92F82400012801D1022038BD8E
:10135000012082F8240000BF4868072812D21068D4
:10136000406B0C79641E04EB84051F24AC40A04341
:101370000D796D1E05EB85050C68AC4020431468A3
:10138000606327E048680D2812D21068006B0C7962
:10139000E41F04EB84051F24AC40A0430D79ED1F2E
:1013A00005EB85050C68AC4020431468206311E010
:1013B0001068C06A0C790D3C04EB84051F24AC4016
:1013C000A0430D790D3D05EB85050C68AC4020432D
:1013D0001468E06208680A2812D31068C0680C78A4
:1013E0000A3C04EB44050724AC40A0430D780A3DB9
:1013F00005EB45058C68AC4020431468E0600FE0C5
:10140000106800690C7804EB44050724AC40A04345
:101410000D7805EB45058C68AC40204314682061CD
:101420000868102802D00868112827D1174C1068C6
:10143000A0421ED11068806800F40000F0B9106866
:10144000806840F400001468A0600868102815D176
:101450000F4800680F4CB0FBF4F000EB8000400038
:10146000009002E00098401E009000980028F9D1FA
:1014700004E0906A40F020009062012300BF002049
:1014800082F8240000BF184661E7000000240140F4
:101490002400002040420F0001460868C06C7047DD
:1014A0002DE9F0410446002700250026A84614B97E
:1014B0000120BDE8F081A06810B1207D00B100BF1F
:1014C000A06A30B90020E06284F82400204600F0D1
:1014D00089F82046FFF7B3FE0746A06A00F0100027
:1014E000002873D1002F71D1A06A20F4885040F0F9
:1014F0000200A062E16960680843217B40EA410084
:101500000643A068B0F5807F02D0A068012802D110
:101510004FF4807000E000200543207D012811D1A8
:10152000207B38B9A069401E4FF4006141EA403089
:10153000054307E0A06A40F02000A062E06A40F0A6
:101540000100E0622068406820F469402843216877
:1015500048602068806821490840304321688860DD
:10156000A068B0F5807F02D0A068012802D14FF4B6
:10157000807000E00020B0F5807F03D1208A401EFB
:101580004FEA00582068C06A20F4700040EA080062
:101590002168C8622068806811490840B04208D1BB
:1015A0000020E062A06A20F0020040F00100A0628A
:1015B00011E0A06A20F0020040F01000A062E06A92
:1015C00040F00100E062012705E0FFE7A06A40F07B
:1015D0001000A062012738466BE70000FDF7E1FF2D
:1015E000FE0E1FFF10B586B0044600200290039047
:1015F0000490059014492068884222D100BF134806
:10160000806940F40070114988610846806900F4DF
:101610000070019000BF00BF00BF0846806940F025
:10162000040088610846806900F00400019000BF52
:1016300000BF012002900320039002A9044800F09B
:10164000ABF906B010BD00000024014000100240BC
:1016500000080140F8B504460D4600260020009021
:10166000002700F037FB06462068806800F4807091
:1016700050B1A06A40F02000A06200BF002084F8B2
:10168000240000BF0120F8BD2068406800F480708D
:1016900020BB2068C06A00F47000F8B917E0681C2D
:1016A000A8B125B100F016FB801BA8420FD9206815
:1016B000006800F0020050B9A06A40F00400A06287
:1016C00000BF002084F8240000BF0320DBE720686F
:1016D000006800F002000028E1D053E0022000F092
:1016E0009BFD38490968B1FBF0F021680969364A69
:1016F000114091B92168C9689211114069B92168F6
:101700000969324A114031B92168C9689211114002
:1017100009B9142117E0292115E0216809692B4A2C
:10172000114021B92168C9689211114041B1216865
:101730000969274A114029B92168C968114009B9C6
:10174000542100E0FC2100FB01F718E0681C98B16F
:1017500025B100F0BFFA801BA8420DD90098B8420D
:101760000AD2A06A40F00400A06200BF002084F802
:10177000240000BF032086E70098401C00900098DA
:10178000B842E3D36FF0120021680860A06A40F409
:101790000070A0622068806800F46020B0F5602FBF
:1017A0000DD1207B58B9A06A20F48070A062A06A95
:1017B00000F4805018B9A06A40F00100A062002037
:1017C00061E7000024000020244992249224491259
:1017D000499224002DE9F041074688461446002529
:1017E000002606E04146384601F018FC0544701C0E
:1017F000C6B2A642F6DBB5FBF4F080B2BDE8F081DC
:1018000070B50446002500BF94F82400012801D1DA
:10181000022070BD012084F8240000BF2046FFF79D
:101820003DFD0546002D77D1A06A40F20121884395
:1018300040F48070A0623C492068884208D13B484F
:10184000006800F4702008B9012002E0002000E0E8
:10185000012078B1A06A20F48010A062206840685E
:1018600000F4806000B3A06A20F4005040F480507F
:10187000A06219E0A06A40F48010A0622B49091F01
:101880002068884203D028492068884204D127482C
:10189000006800F4806000E0002028B1A06A20F415
:1018A000005040F48050A062A06A00F4805020B143
:1018B000E06A20F00600E06201E00020E06200BF84
:1018C000002084F8240000BFC01E21680860206842
:1018D000806800F46020B0F5602F16D112492068AE
:1018E000884208D11148006800F4702008B901202E
:1018F00002E0002000E0012038B12068806840F458
:10190000A000216888600CE006E02068806840F450
:1019100080102168886004E000BF002084F8240063
:1019200000BF284675E7000000280140042401405C
:1019300070B50446002500BF94F82400012801D1A9
:10194000022070BD012084F8240000BF2046FFF76C
:1019500076FC05462DB9A06A20F4885040F00100BD
:10196000A06200BF002084F8240000BF2846E8E7FA
:1019700070B5044600F0AEF906462546681C10B165
:1019800004480078054400BF00F0A4F9801BA84279
:10199000FAD370BD200000202DE9F847034600224D
:1019A00094466EE14FF0010808FA02F4D1F8008085
:1019B00008EA0400A0427DD1DFF8DCA2D1F804805F
:1019C000A8EB0A09D0453AD014DCB8F1030F50D087
:1019D00009DCB8F1000F31D0B8F1010F1CD0B8F11B
:1019E000020F49D120E0B8F1110F18D0B8F1120F51
:1019F00042D11EE0B9F5881F25D006DCB9F5803F3D
:101A000020D0B9F5801F37D11AE0B9F5001F18D0E2
:101A1000B9F5041F30D117E0D1F80CC02DE0D1F892
:101A20000C8008F1040C28E0D1F80C8008F1080CB7
:101A300023E0D1F80C8008F10C0C1EE000BF00BFC1
:101A400000BF00BF00BF00BFD1F80880B8F1000F91
:101A500002D14FF0040C0BE0D1F80880B8F1010F6F
:101A600003D14FF0080C1C6102E04FF0080C5C61E0
:101A700003E04FF0000C00E000BF00BFFF2801D8DA
:101A8000984601E003F104084646FF2802D84FEAD1
:101A9000820803E0A2F108084FEA88084746D6F812
:101AA00000804FF00F0909FA07F928EA09080CFA33
:101AB00007F900E088E048EA0908C6F80080D1F894
:101AC000048008F08058B8F1805F7DD100BFDFF856
:101AD000CC81D8F8188048F00108DFF8C091C9F827
:101AE0001880C846D8F8188008F00108CDF80080A2
:101AF00000BF00BF4FEAB9384FEA920958F82950A1
:101B00004FEA82784FEA18794FF00F0808FA09F87F
:101B100025EA0805DFF88881434502D14FF0000827
:101B200016E0DFF88081434502D14FF001080FE055
:101B3000DFF87481434502D14FF0020808E0DFF876
:101B40006C81434502D14FF0030801E04FF00408D7
:101B50004FEA82794FEA197908FA09F848EA050547
:101B6000DFF84C814FEA920948F82950D1F80480F7
:101B700008F48018B8F5801F0AD1DFF83881D8F84A
:101B8000008048EA0008DFF82C91C9F8008009E0DD
:101B9000DFF82081D8F8008028EA0008DFF81491E7
:101BA000C9F80080D1F8048008F40018B8F5001FC7
:101BB00010D1DFF8008108F10408D8F8008048EA65
:101BC0000008DFF8F09000E05AE009F10409C9F8D4
:101BD00000800DE0DFF8DC8008F10408D8F8008010
:101BE00028EA0008DFF8CC9009F10409C9F8008060
:101BF000D1F8048008F40038B8F5003F0ED1DFF8C2
:101C0000B480A8F10408D8F8008048EA0008DFF89A
:101C1000A490A9F10409C9F800800DE0DFF89480D0
:101C2000A8F10408D8F8008028EA0008DFF88490BA
:101C3000A9F10409C9F80080D1F8048008F48038BB
:101C4000B8F5803F0ED1DFF86C80A8F10808D8F80D
:101C5000008048EA0008DFF85C90A9F10809C9F89B
:101C600000800DE0DFF84C80A8F10808D8F800806B
:101C700028EA0008DFF83C90A9F10809C9F80080BB
:101C8000521CD1F8008028FA02F8B8F1000F7FF456
:101C900089AEBDE8F8870000000011100010024076
:101CA00000080140000C01400010014000140140F8
:101CB0000800014008040140024693680B400BB144
:101CC000012000E0002070470AB1016101E00B042F
:101CD0000361704701480068704700001800002049
:101CE00070B504460CB9012070BD94F83D0028B9C8
:101CF000002084F83C00204600F092F9242084F86B
:101D00003D002068006820F001002168086020681C
:101D1000006840F40040216808602068006820F4F2
:101D200000402168086000F059FC05465C49606885
:101D3000884206D85B48854201D2012007E0002096
:101D400005E05948854201D2012000E00020012829
:101D500000D1C9E75548B5FBF0F62068406820F08F
:101D60003F003043216848604D496068884201D88F
:101D7000701C07E04FF4967070434FF47A71B0FB1B
:101D8000F1F0401C2168096A21F03F0108432168F5
:101D9000086243496068884214D8681E6168490037
:101DA000B0FBF1F0401CC0F30B00042801D204206A
:101DB0003DE0681E61684900B0FBF1F0401CC0F3D3
:101DC0000B0034E0A06838B9681E616801EB41017E
:101DD000B0FBF1F0401C0AE0681E616801EBC10233
:101DE00002EB0111B0FBF1F0401C40F48040C0F365
:101DF0000B0008B901201AE0A06848B9681E6168A4
:101E000001EB4101B0FBF1F0401CC0F30B000CE012
:101E1000681E616801EBC10202EB0111B0FBF1F039
:101E2000401CC0F30B0040F4804040F400402168A7
:101E3000C9694CF6FF72914308432168C861D4E92F
:101E4000070108432168096821F0C001084321689F
:101E50000860D4E9031008432168896848F2FF321A
:101E60009143084321688860D4E90501084321684B
:101E7000C96821F0FF0108432168C8602068006834
:101E800040F001002168086000202064202084F8D0
:101E90003D000020206384F83E0000BF24E70000DE
:101EA000A086010080841E0000093D0040420F0012
:101EB0002DE9F8430446894616461F46DDF8208082
:101EC000FFF708FF054694F83D0020287ED119232E
:101ED000012251492046009500F0D9FE10B10220A0
:101EE000BDE8F88300BF94F83C00012801D102202E
:101EF000F6E7012084F83C0000BF2068006800F08D
:101F0000010028B92068006840F0010021680860DD
:101F10002068006820F4006021680860212084F8AF
:101F20003D00102084F83E00002020646662678532
:101F3000608D20853948E0622B464246494620465E
:101F400000F012FE08B10120CAE700BF0020009097
:101F500020684069009020688069009000BF00BF41
:101F600044E02A464146204600F06DFF50B1206C07
:101F7000042805D12068006840F4007021680860DA
:101F80000120ADE7606A007821680861606A401C42
:101F90006062608D401E6085208D401E2085206817
:101FA0004069C0F3800070B1208D60B1606A007834
:101FB00021680861606A401C6062608D401E608517
:101FC000208D401E20852A46414600E022E0204622
:101FD00000F02AFE50B1206C042805D1206800686A
:101FE00040F4007021680860012079E7208D002806
:101FF000B7D12068006840F4007021680860202094
:1020000084F83D00002084F83E0000BF84F83C00C6
:1020100000BF65E7022063E7020010000000FFFF39
:1020200010B586B0044600200290039004900590FD
:1020300015492068884225D100BF1448806940F0C6
:102040000800124988610846806900F00800019084
:1020500000BF00BFC0200290122003900320059013
:1020600002A90B48FFF798FC00BF0848C06940F47C
:1020700000100649C8610846C06900F400100190CC
:1020800000BF00BF06B010BD005400400010024069
:10209000000C0140034800680349097808440149DD
:1020A00008607047180000202000002010B5084884
:1020B000006840F0100006490860032000F098F81E
:1020C0000F2000F007F800F02BF8002010BD0000F2
:1020D0000020024070B504460E4800784FF47A7133
:1020E000B1FBF0F00C490968B1FBF0F5284600F0AF
:1020F000FFFC08B1012070BD102C07D20022214640
:10210000501E00F037F80548046001E00120F2E7B6
:102110000020F0E720000020240000201C00002008
:1021200008B500BF1148806940F001000F4988617F
:102130000846806900F00100009000BF00BF00BFAA
:102140000846C06940F08050C8610846C06900F088
:102150008050009000BF00BF00BF0549486820F0D4
:10216000E06040F00070486000BF08BD0010024011
:10217000000001402DE9F05F80460D46164600271D
:1021800000F0CAFF074639462A46334601F00700E9
:10219000C0F1070ABAF1040F02D94FF0040A01E0B6
:1021A000C0F1070AD14600F1040ABAF1070F02D2C2
:1021B0004FF0000A01E0A0F1030AD4464FF0010AF3
:1021C0000AFA09FAAAF1010A0AEA020A0AFA0CFA58
:1021D0004FF0010B0BFA0CFBABF1010B0BEA030BFD
:1021E0004AEA0B042146404600F09EFFBDE8F09FFE
:1021F00000BF00F00702064B19684FF6FF031940B5
:10220000044B0B4343EA0221014B196000BF7047A6
:102210000CED00E00000FA052DE9F04706464FF00E
:102220000008002500270024A146012E31D0022EEF
:1022300056D0102E5FD132484468006800F080709C
:1022400008B33048C4F38341475C04F4803078B16C
:102250002B484068C0F340402B4911F8008004F43B
:10226000803040B12948B0FBF8F000FB07F502E0F0
:10227000274807FB00F52248406800F48000B0F5CD
:10228000800F01D1A94603E068000321B0FBF1F9FA
:1022900032E01B48046A04F44070B0F5807F05D139
:1022A00004F0020010B14FF4004918E004F440704B
:1022B000B0F5007F07D11248406A00F0020010B16B
:1022C00049F640490BE004F44070B0F5407F06D178
:1022D0000B48006800F4003008B14FF224490BE0CD
:1022E00000F08CF906494968C1F38131491C490065
:1022F000B0FBF1F900E000BF00BF4846BDE8F08741
:1023000000100240AC3C0008BC3C000800127A00FF
:1023100000093D00F8B5044600260025207800F0AD
:10232000010000286BD000274348C06900F08050AE
:1023300070B900BF4048C06940F080503E49C86154
:102340000846C06900F08050009000BF00BF012720
:102350003A48006800F48070B0B93848006840F42A
:10236000807036490860FFF7B5FC064606E0FFF7C7
:10237000B1FC801B642801D90320F8BD2F480068F8
:1023800000F480700028F2D02B48006A00F44075F9
:102390002DB3A08800F44070A84220D02648006ADF
:1023A00020F440750120264908600020086022487A
:1023B000056205F0010090B1FFF78CFC064608E0CD
:1023C000FFF788FC801B41F28831884201D9032045
:1023D000D3E71948006A00F002000028F0D0164840
:1023E000006A20F440706168084313490862012FB5
:1023F00004D10846C06920F08050C86100BF207831
:1024000000F00200022807D10B48406820F4404049
:10241000A168084308494860207800F0100010289F
:1024200007D10548406820F48000E168084302496C
:1024300048600020A1E7000000100240007000404A
:102440004004424270B504460D460CB9012070BDEF
:102450005A48006800F00700A8420ED257480068AA
:1024600020F007002843554908600846006800F03E
:102470000700A84201D00120E9E7207800F002001F
:1024800002281DD1207800F00400042805D14C4812
:10249000406840F4E0604A494860207800F0080055
:1024A000082805D14648406840F4605044494860D7
:1024B0004348406820F0F000A16808434049486064
:1024C000207800F0010078B36068012806D13C480C
:1024D000006800F4003090B90120B8E76068022875
:1024E00006D13748006800F0007040B90120AEE71F
:1024F0003348006800F0020008B90120A7E730481F
:10250000406820F00300616808432D494860FFF7E8
:10251000E1FB064609E0FFF7DDFB801B41F2883155
:10252000884202D9032092E707E02548406800F07E
:102530000C006168B0EB810FEDD12048006800F01D
:102540000700A8420ED91D48006820F00700284364
:102550001A4908600846006800F00700A84201D048
:10256000012074E7207800F00400042807D1144803
:10257000406820F4E060E168084311494860207831
:1025800000F00800082808D10D48406820F4605089
:10259000216940EAC1000A49486000F03FF8084953
:1025A0004968C1F30311074A515CC84006490860F5
:1025B00006480068FFF78EFD002048E70020024033
:1025C00000100240BE3C0008240000201C00002037
:1025D00001480068704700002400002000B5FFF7A4
:1025E000F7FF04494968C1F30221034A515CC8401E
:1025F00000BD000000100240CE3C000800B5FFF70F
:10260000E7FF04494968C1F3C221034A515CC8404D
:1026100000BD000000100240CE3C000870B5002153
:102620000022002400230020134D696801F00C05EE
:10263000F5B1042D02D0082D19D101E00F4819E0A1
:102640000F4DC1F38346AB5D01F4803555B10A4DA2
:102650006D68C5F340450B4E725D084D5D43B5FB9B
:10266000F2F402E0084D03FB05F4204602E000BF4F
:10267000024800BF00BF70BD0010024000127A0087
:102680009A3C0008AA3C000800093D00F8B5044641
:102690000CB90120F8BD207800F00100002878D0A6
:1026A000F848406800F00C0004280CD0F548406859
:1026B00000F00C00082811D1F248406800F4803086
:1026C000B0F5803F0AD1EF48006800F400300028E0
:1026D0005FD0606800285CD10120DBE700BF606844
:1026E000B0F5803F06D1E748006840F48030E54906
:1026F000086028E0606858B9E248006820F480303B
:10270000E04908600846006820F4802008601AE06C
:102710006068B0F5A02F0BD1DA48006840F4802043
:10272000D84908600846006840F4803008600AE034
:10273000D448006820F48030D24908600846006818
:1027400020F48020086000BF606888B1FFF7C2FAFB
:10275000054606E0FFF7BEFA401B642801D90320B6
:1027600098E7C848006800F400300028F2D010E074
:10277000FFF7B0FA054606E0FFF7ACFA401B642805
:1027800001D9032086E7BF48006800F40030002824
:10279000F2D1207800F00200022857D1B9484068F1
:1027A00000F00C0050B1B748406800F00C00082859
:1027B00018D1B448406800F4803098B9B148006836
:1027C00000F0020020B12069012801D0012061E75A
:1027D000AC48006820F0F800616940EAC100A949EE
:1027E000086033E02069E8B10120A7490860FFF7DD
:1027F00071FA054606E0FFF76DFA401B022801D981
:10280000032047E79F48006800F002000028F2D04C
:102810009C48006820F0F800616940EAC1009949CD
:10282000086013E0002098490860FFF753FA054656
:1028300006E0FFF74FFA401B022801D9032029E7E1
:102840009048006800F002000028F2D1207800F0E3
:10285000080008282DD1A069B8B101208B49086073
:10286000FFF738FA054606E0FFF734FA401B022866
:1028700001D903200EE78348406A00F002000028D7
:10288000F2D0012000F0B6FB13E000207F49086081
:10289000FFF720FA054606E0FFF71CFA401B022866
:1028A00001D90320F6E67748406A00F002000028CC
:1028B000F2D1207800F00400042873D10027714879
:1028C000C06900F0805070B900BF6E48C06940F028
:1028D00080506C49C8610846C06900F08050009083
:1028E00000BF00BF01276A48006800F48070B0B9DB
:1028F0006748006840F4807065490860FFF7EAF9AE
:10290000054606E0FFF7E6F9401B642801D90320DD
:10291000C0E65F48006800F480700028F2D000BF75
:10292000E068012806D15748006A40F00100554987
:10293000086227E0E06858B95248006A20F00100B8
:10294000504908620846006A20F00400086219E055
:10295000E06805280BD14B48006A40F00400494963
:1029600008620846006A40F0010008620AE0454833
:10297000006A20F00100434908620846006A20F01E
:102980000400086200BFE068A0B1FFF7A3F90546A4
:1029900009E0FFF79FF9401B41F28831884202D9D4
:1029A000032077E622E03748006A00F002000028A2
:1029B000EFD012E0FFF78EF9054608E0FFF78AF93D
:1029C000401B41F28831884201D9032062E62D483C
:1029D000006A00F002000028F0D1012F05D129483B
:1029E000C06920F080502749C86100BFE069C8B3C2
:1029F0002448406800F00C00082860D0E0690228F4
:102A000048D1002020490866FFF764F9054606E032
:102A1000FFF760F9401B022801D903203AE6194864
:102A2000006800F000700028F2D1206AB0F5803F05
:102A300007D11448406820F40030A16808431149C8
:102A40004860D4E9080108430E49496821F474112B
:102A500008430C49486001200B490866FFF73AF922
:102A6000054607E03DE0FFF735F9401B022801D994
:102A700003200FE60348006800F000700028F2D041
:102A80002FE0000000100240000042428004424259
:102A900000700040002014490866FFF71BF9054646
:102AA00006E0FFF717F9401B022801D90320F1E5E2
:102AB0000E48006800F000700028F2D111E0E069D3
:102AC000012800D1E6E50948466806F48031206A0D
:102AD000814204D106F47011606A814201D0012064
:102AE000D8E50020D6E50000000042420010024078
:102AF00070B504462546681EB0F1807F01D30120E1
:102B00000FE0681E4FF0E02148610F214FF0FF30C9
:102B100000F00AFB00204FF0E021886107200861E7
:102B2000002070BD00BFFEE7014608684069C0F3A1
:102B30008020B0B16FF480600A68506100200863A3
:102B4000202081F83D00002081F83E00086C40F014
:102B50000400086400BF002081F83C0000BF012091
:102B600070470020FCE700002DE9F84304460D46BD
:102B700017469846E66A082E04D0012E02D016F5B4
:102B8000803F06D12068006840F4807021680860AA
:102B900008E0206B122805D12068006840F480709E
:102BA000216808603B4600224FF001112046CDF815
:102BB000008000F06CF860B12068006800F480705C
:102BC000B0F5807F02D14FF4007020640320BDE88F
:102BD000F8832069B0F5804F04D105F0FE0021682C
:102BE000086112E005F44070F02141EAE01021682C
:102BF000086143463A460B49204600F0A7F808B161
:102C00000120E4E7E8B22168086143463A460549F5
:102C1000891F204600F09AF808B10120D7E700206C
:102C2000D5E700000800010070B504460D461646C1
:102C300025E02046FFF778FF08B1012070BD681C31
:102C4000E8B1FFF747F8801BA84200D8BDB920685B
:102C50004069C0F3800090B900202063202084F8F0
:102C60003D00002084F83E00206C40F020002064ED
:102C700000BF002084F83C0000BF0120DEE7206890
:102C80004069C0F380000028D3D00020D6E72DE9AA
:102C9000F04104460D4617461E46DDF8188038E020
:102CA000701CA8B3FFF716F8A0EB0800B04200D8DC
:102CB00076BBC5F3074001280AD120684069A9B254
:102CC0000840A9B2884201D101200BE0002009E0B0
:102CD00020688069A9B20840A9B2884201D10120C8
:102CE00000E00020B84214D100202063202084F8A6
:102CF0003D00002084F83E00206C40F0200020645D
:102D000000BF002084F83C0000BF0120BDE8F08136
:102D1000FFE7C5F3074001280AD120684069A9B23E
:102D20000840A9B2884201D101200BE0002009E04F
:102D300020688069A9B20840A9B2884201D1012067
:102D400000E00020B842ABD00020DFE72DE9F041E1
:102D500004460D4616461F4658E020684069C0F3F9
:102D60008020E8B12068006840F4007021680860A5
:102D70006FF480602168486100202063202084F87F
:102D80003D00002084F83E00206C40F004002064E8
:102D900000BF002084F83C0000BF0120BDE8F081A6
:102DA000701C90B3FEF796FFC01BB04200D866BB04
:102DB000C5F3074001280AD120684069A9B208403C
:102DC000A9B2884201D101200BE0002009E020686F
:102DD0008069A9B20840A9B2884201D1012000E06F
:102DE000002090B900202063202084F83D000020BE
:102DF00084F83E00206C40F02000206400BF0020DA
:102E000084F83C0000BF0120C8E7FFE7C5F3074096
:102E100001280AD120684069A9B20840A9B28842B5
:102E200001D101200BE0002009E020688069A9B2EF
:102E30000840A9B2884201D1012000E0002000280A
:102E40008BD00020AAE770B504460D46164625E053
:102E50002046FFF769FE08B1012070BD681CE8B18B
:102E6000FEF738FF801BA84200D8BDB92068406932
:102E7000C0F3C01090B900202063202084F83D00EA
:102E8000002084F83E00206C40F02000206400BF49
:102E9000002084F83C0000BF0120DEE72068406984
:102EA000C0F3C0100028D3D00020D6E70EB5002014
:102EB00000900190029012481249086000211148C8
:102EC0008160017301754FF46021C16100200D49DB
:102ED000486001210B480161FEF7E2FA08B1FEF7F4
:102EE00028FA0020009001200190002002906946FD
:102EF0000448FEF721FA08B1FEF71BFA0EBD0000E8
:102F0000002401402800002000B585B00020019079
:102F100002900390049000BF2148806940F0200097
:102F20001F4988610846806900F02000009000BFBA
:102F300000BF00BF0846806940F004008861084671
:102F4000806900F00400009000BF00BF00BF084689
:102F5000806940F0080088610846806900F0080038
:102F6000009000BF00BF002201210E48FEF7ACFE1A
:102F700020200190002002900120039001A90A481E
:102F8000FEF70AFD0F20019001200290002003901F
:102F90000220049001A90348FEF7FEFC05B000BD25
:102FA00000100240000C01400008014010B50B4821
:102FB0000B4908600B484860002109488160C160E6
:102FC0004FF480410161002141618161C161016271
:102FD000FEF786FE08B1FEF7ACF910BD00540040C4
:102FE00058000020A086010000BFFEE700BFFEE7FA
:102FF0007047000008B508490968C9084FF47A729B
:10300000B1FBF2F14143009100BF00BF00994A1E9D
:1030100000920029F9D108BD24000020FEB5054624
:103020000C46002000900190029000940120019035
:103030000020029069462846FEF77EF92846FEF7F2
:10304000DFFB64212846FEF705FB2846FEF724FA3D
:1030500086B22846FEF76CFC3046FEBD704710B5C0
:10306000FFF718F810BD00B593B0282109A8FDF7A7
:1030700052F9142104A8FDF74EF9002000900190A8
:10308000029003900120099000040A9000200B9008
:1030900001200D9002201090C10311914FF4C01136
:1030A000129109A8FFF7F2FA08B1FEF742F90F20D2
:1030B000049002200590002006904FF48060079055
:1030C00000200890022104A8FFF7BCF908B1FEF720
:1030D00030F902200090800302906846FFF71AF949
:1030E00008B1FEF726F913B000BD704700BFFEE738
:1030F000490050EAC12018BF04204A0D18BF40F013
:10310000010040F2FF72B2EB515F08BF40F00200D5
:10311000012808BF0520704702480068C0F302205C
:10312000704700000CED00E010B5002804DB0A0732
:10313000130E054A135406E00A07140E034A00F062
:103140000F031B1FD45410BD00E400E018ED00E095
:1031500030380A2801D2012070470020704770B52E
:1031600005468021284600F07FF8002404E0202155
:10317000284600F09CF8641C502CF8DB70BD2DE94B
:10318000F04107460C46164636B1012E08D0022EF5
:103190000AD0032E10D10BE004F18000C5B20DE07F
:1031A00004F1C000C5B209E004F19400C5B205E025
:1031B00004F1D400C5B201E0BDE8F08100BF2946AA
:1031C000384600F051F800BFF6E710B5044632204B
:1031D000FEF7CEFB3021204600F046F80520FEF732
:1031E000C7FB3021204600F03FF80120FEF7C0FB6E
:1031F0003021204600F038F80A20FEF7B9FB2021E4
:10320000204600F031F80A20FEF7B2FB28212046C4
:1032100000F02AF80120FEF7ABFB0821204600F061
:1032200023F80120FEF7A4FB0121204600F01CF842
:103230000220FEF79DFB0621204600F015F8012034
:10324000FEF796FB0C21204600F00EF810BD70B57D
:1032500005460C4604E014F8011B284600F027F848
:1032600020780028F7D170BD2DE9FC4104460D46B9
:1032700005F0F006F02000EA051746F00C008DF886
:10328000040046F008008DF8050047F00C008DF8AA
:10329000060047F008008DF80700642000902179AF
:1032A000042301AA2068FEF703FEBDE8FC812DE996
:1032B000FC4104460D4605F0F006F02000EA051733
:1032C00046F00D008DF8040046F009008DF8050069
:1032D00047F00D008DF8060047F009008DF8070053
:1032E000642000902179042301AA2068FEF7E0FD04
:1032F000BDE8FC81FEF7DAFEFFF7B5FEFFF704FE3E
:10330000FFF7D4FDFFF752FE8548864908604E203E
:1033100008710846FFF759FF8248FFF720FFFEE0DB
:103320000A2200218048FEF755FA804908800846A5
:10333000008800F06BFB81467D4900F0A5FA044649
:1033400000F06AFA07464FF066327A4B00F066F9F1
:10335000054600F031F978490860784976480068F8
:1033600000F09CFB76490860C820FEF701FB74481A
:10337000006800F051FA044622460B4671A17648D7
:10338000FCF72EFF002211466648FFF7F8FE72494F
:103390006448FFF75CFF71496948006800F04AFB28
:1033A00016D26F48007898B9012202216D48FEF7C5
:1033B0008BFC012208216B48FEF786FC01220021CC
:1033C0005848FFF7DCFE68A15648FFF740FF96E03B
:1033D00062495B48006800F02DFC78D260480078B4
:1033E000002874D1002202215E48FEF76DFC002205
:1033F00008215C48FEF768FC012211465948FEF797
:1034000063FCC820FEF7B4FA002201215548FEF7FC
:103410005BFCC820FEF7ACFA012211465148FEF7CA
:1034200053FCC820FEF7A4FA002201214D48FEF704
:103430004BFCC820FEF79CFA012211464948FEF7D2
:1034400043FCC820FEF794FA002201214548FEF70C
:103450003BFCC820FEF78CFA012211464148FEF7DA
:1034600033FCC820FEF784FA002201213D48FEF714
:103470002BFCC820FEF77CFA012211463948FEF7E2
:1034800023FCC820FEF774FA002201213548FEF71C
:103490001BFCC820FEF76CFA012211463148FEF7EA
:1034A00013FCC820FEF764FA002201212D48FEF724
:1034B0000BFC012200211B48FFF761FE2EA11948D9
:1034C000FFF7C5FE01202649087018E0FFE700223B
:1034D00001212448FEF7F8FB002202212148FEF7D3
:1034E000F3FB002208211F48FEF7EEFB012200211A
:1034F0000C48FFF744FE20A10A48FFF7A8FE202150
:103500002148FEF7D9FB50B93220FEF731FA2021CD
:103510001D48FEF7D1FB10B9002011490870FFE6E5
:10352000580000201000002028000020000000208B
:1035300000F07F4566660A40040000200000C84293
:10354000080000204E6869657420646F3A20252EBB
:103550003166204300000000AC0000200000B442AF
:103560000C000020000C014064616E672064756EE1
:10357000206E756F6300000064612064756E2078B2
:103580006F6E6720200000000008014010B5002980
:103590000AD00878002807D005487844FDF740FA9B
:1035A000002801D0002010BD0248784410BD000062
:1035B000F2070000EA07000021F00042A2F1605289
:1035C000B2F5801F01F0004328BFD2F17F6C0BD908
:1035D0005FEA001C43EAC20242EB507018BF70471A
:1035E00028BF20F001007047B2F5801FBCBF18460D
:1035F00070474FEA410C1CF5001F02D2084600F04C
:1036000014BB70B500F0B4F800000089FFF7F6BFF6
:103610004FF00040A0F5800070470000DFF848C17F
:1036200070B51CEA111E1EBF1CEA13159EEA0C0F92
:1036300095EA0C0F00F06F8081EA030423EA4C1333
:103640004EEAD47E21EA4C1141F4801143F48013F8
:10365000AE44A1FB024CA0FB0365AEF17F7E3619A0
:1036600055EB0C05A1FB034C4CF10003A0FB021C25
:1036700016EB0C06654153F10003094218BF46F0F2
:10368000010613F4007F0BD14FEA03314FEA0530F6
:10369000340341EA155140EA16506FF003020AE084
:1036A0004FEAC3214FEAC520F40241EA555140EAEE
:1036B00056506FF0020202EB2E4201EB025585EAF2
:1036C000CE710AD05FEA440C18BF24F0004450F1D8
:1036D000000041F1000120EAD47040F2FE7C624516
:1036E00000D270BDA84214BF4FF080444FF0404458
:1036F000002E08BF0024BEF1806FA8BFA1F1C04119
:10370000BDE8704080F282804FF0000001F1C041BE
:1037100001F0004170479EEA0C0F0CEA131518BF28
:1037200095EA0C0F06D04FF0000081EA030E0EF070
:10373000004170BD00F01CF88900013E00F007B8A0
:1037400000F009B84FEA430C5FEA5C5C08D081EAFC
:10375000030100F05BB84FEA410C5FEA5C5CF6D114
:103760004FF00000014970470000FF070000F87F9C
:103770000EF1020E2EF0030E5EF8046B364205D4F5
:10378000012A43EB030515F5001F12D8012841EB70
:10379000010C1CF5001F0CD80ED14FEAD17C15F599
:1037A000001F0CEB4C0C0CF1020C08BF4CEBD37C53
:1037B00004E04FF0080C01E04FEAD37C0CEB4C0521
:1037C00026FA05F606F00706B6F1040C06D20EEB53
:1037D000860CBDE870404CF0010C6047DFE80CF04F
:1037E000090B02024FF000414FF00000A1F500214B
:1037F00070BD19461046012851EB010418BFD4F5DD
:10380000001484BF002001F0004170BD0808A0F53D
:1038100000114FEA3101704743004FEAD30C4FEAE1
:103820003C0C43401FBF40070CF1605113F0FE4FAA
:1038300070471CF0006F03D100200CF0004170476E
:103840000CF0004343EA507010B540EACC0000F0A1
:10385000A6F900BF000000924FEA0001FFF7D6BFB3
:103860004FF000414FF00000A1F5002170474010DB
:1038700058BFC0F14040491058BFC1F1404181429A
:10388000EFF30080704700004FF47F0C1CEAD01269
:103890001EBF1CEAD11392EA0C0F93EA0C0F00F042
:1038A000858090EA010F48BF42F4807240F4000C1A
:1038B00041F400002CF07F4120F07F4000B58142B0
:1038C000A2EB03020FF2081CACEB504EC0F100005B
:1038D0009EF800E04FEA4E0E00FB0EFC38BF490098
:1038E0004FEA2C1C02F5FA020CFB0EF34FEACE1E37
:1038F0004FEA112C4FEAC1210EEB635E42EB2242EC
:103900000EFB0CFC4FEA1C5300FB03114FEA112C79
:103910004FEA01310EFB0CFC4FEADC4C00FB0C11B2
:10392000C14228BF09184CEB03335DF804EB10EBE0
:10393000410143EBC250B2F57C0F38BF704729D527
:1039400012F0F00F1CBF00F1C04000F000407047C3
:10395000008182838485868788898B8C8D8E8F9168
:103960009293959697999A9C9D9FA0A2A3A5A7A88C
:10397000AAACAEB0B2B3B5B7B9BCBEC0C2C5C7C9B8
:10398000CCCED1D4D7D9DCDFE2E6E9ECF0F3F7FA1C
:10399000FE0000004FEA400C0CF1807CBCF17E4F31
:1039A00028BF7047B0F1C04000F03FB990EA010F66
:1039B0000CEAD11348BF42F48072624538BF6345B8
:1039C00007D213F47F0F16D080EA010000F0004008
:1039D000704710B500F0E3F8097EFC3E00F005B832
:1039E00080EA010000F00040704780EA010000F02A
:1039F000004000F01AB912F47F0F04BF024870476C
:103A000080EA010000F011B90000C07FB0FA80F335
:103A100010FA03F2C3F19D030AD0D90501EB12207D
:103A2000530638BF704700F1010008BF20F00100C5
:103A30007047000050EA010C00F113801CF5000FE4
:103A400058BFBCF5000F01D48842704707D710F566
:103A5000000F58BF11F5000F15D4884270478942F6
:103A600070471CF5000F04D5BCF5000FF7D5814257
:103A700070474FF0807C1CEB400F38BF1CEB410FB0
:103A800001D28142704710B500F089F892244900B4
:103A90004FF000504FF08051FFF7E9BE4FF47F0C1C
:103AA0001CEAD0121EBF1CEAD11392EA0C0F93EA53
:103AB0000C0F00F0478090EA010F48BF42F480727B
:103AC0004FF0004C4CEA00204CEA012102EB0302CB
:103AD000A0FB0113A2F50002002918BF43F0010367
:103AE0005B0028BF4FEA330342EB22425FEA132C0C
:103AF0004CEBC2502EBFBCEB436FB2F57C0F70474E
:103B00004FEA036CBCF1004F08BF20F00100B2F592
:103B10007C0F38BF70470BD582F0FF0212F5803F53
:103B2000C8BF704700F1C040D8BF00F000407047E8
:103B300000F5000C5FEA4C0C48BF7047B0F1C04084
:103B400000F073B890EA010F0CEAD11348BF42F4B9
:103B50008072624538BF634504D280EA010000F0FC
:103B60000040704710B500F01AF800BF8900013E10
:103B700000F007B800F009B85FEA410C5FEA1C6C7E
:103B800008D080EA010000F050B85FEA400C5FEA1C
:103B90001C6CF6D14FF00040A0F5800070470EF18C
:103BA000020E2EF0030E5EF8044B244204D44FEABA
:103BB0004102B2F17F4F11D84FEA4003B3F17F4F7A
:103BC0000CD80ED14FEAD07CB2F17F4F0CEB4C0CED
:103BD0000CF1020C08BF4CEBD17C04E04FF0080C58
:103BE00001E04FEAD17C0CEB4C0324FA03F404F01F
:103BF0000704B4F1040C06D20EEB840CBDE81040AF
:103C00004CF0010C6047DFE80CF0070802024FF0AF
:103C10000040A0F5800010BD0846420018BFD2F158
:103C2000807288BF00F0004010BDFF2141EAD050F3
:103C3000C005704751EA000C00F113801CF5000F1D
:103C400058BFBCF5000F01D48142704707D711F56A
:103C5000000F58BF10F5000F15D4814270478942FC
:103C600070471CF5000F04D5BCF5000FF7D588424E
:103C700070474FF0807C1CEB410F38BF1CEB400FAE
:103C800001D28842704780EA010081EA000180EA9F
:103C90000100FFF7F8BEFCF741BC0203040506076C
:103CA00008090A0B0C0D0E0F101001020203040587
:103CB000060708090A0B0C0D0E0F10100102000078
:103CC00000000000000001020304060708090000CC
:103CD000000001020304000002400000000000A0F8
:103CE0000000000005400000000000C800000000C7
:103CF0000C4000000000409C000000001940000043
:103D00000020BCBE0000000034400000BFC91B8E74
:103D100000000004B5400000504BCFD06607E2CF52
:103D2000010000006C4100003E8251AADFEEA73482
:103D300001000000D9420000DCB5A0E23A301F9734
:103D4000FFFFFFFFB4450000FD25A0C8E9A3C14F58
:103D5000FFFFFFFFFF3F00000000008000000000A9
:103D6000FF3F00000000008000000000A83D0008A8
:103D7000000000202800000028010008D03D0008B5
:103D800028000020F8060000440100081C00000084
:103D900043000000F8FFFFFF0C0000000E000000D1
:103DA0000F0000002E0000000000000000000000D6
:103DB0000000000000000000000000000000000003
:103DC00000000000100000000100000000127A0056
:04000005080000ED02
:00000001FF
